:020000040800F2
:1000000000500020896E0008D16E0008D16E0008F3
:10001000D16E0008D16E0008D16E0008000000000B
:10002000000000000000000000000000D16E000889
:10003000D16E000800000000D16E0008D16E0008EB
:10004000D16E0008D16E0008D16E0008D16E000894
:10005000D16E0008D16E000811430008D16E00086F
:10006000D16E0008D16E0008D16E0008D16E000874
:10007000D16E0008D16E0008D16E0008D16E000864
:10008000D16E0008D16E0008D16E0008D16E000854
:10009000D16E0008D16E0008D16E00086519000805
:1000A000D16E0008D16E0008D16E0008D16E000834
:1000B000D16E0008D16E000841430008D16E0008DF
:1000C000D16E0008D16E0008D16E0008D16E000814
:1000D000D16E0008D16E0008D16E0008D16E000804
:1000E000D16E0008D16E0008D16E0008000000003B
:1000F0000000000000000000000000000000000000
:0C01000000000000000000005FF808F1A3
:1001100081F0004102E000BF83F0004330B54FEAB8
:1001200041044FEA430594EA050F08BF90EA020F25
:100130001FBF54EA000C55EA020C7FEA645C7FEAB8
:10014000655C00F0E2804FEA5454D4EB5555B8BFDB
:100150006D420CDD2C4480EA020281EA030382EA4C
:10016000000083EA010180EA020281EA0303362DDE
:1001700088BF30BD11F0004F4FEA01314FF4801CB1
:100180004CEA113102D0404261EB410113F0004FC3
:100190004FEA03334CEA133302D0524263EB43037A
:1001A00094EA050F00F0A780A4F10104D5F1200E18
:1001B0000DDB02FA0EFC22FA05F2801841F1000173
:1001C00003FA0EF2801843FA05F359410EE0A5F147
:1001D00020050EF1200E012A03FA0EFC28BF4CF078
:1001E000020C43FA05F3C01851EBE37101F000452E
:1001F00007D54FF0000EDCF1000C7EEB00006EEB3B
:100200000101B1F5801F1BD3B1F5001F0CD34908C4
:100210005FEA30004FEA3C0C04F101044FEA44521B
:1002200012F5800F80F09A80BCF1004F08BF5FEAA2
:10023000500C50F1000041EB045141EA050130BD82
:100240005FEA4C0C404141EB0101013C28BFB1F594
:10025000801FE9D291F0000F04BF01460020B1FADF
:1002600081F308BF2033A3F10B03B3F120020CDAB2
:100270000C3208DD02F1140CC2F10C0201FA0CF090
:1002800021FA02F10CE002F11402D8BFC2F1200CF5
:1002900001FA02F120FA0CFCDCBF41EA0C019040AB
:1002A000E41AA2BF01EB0451294330BD6FEA0404F4
:1002B0001F3C1CDA0C340EDC04F11404C4F12002DF
:1002C00020FA04F001FA02F340EA030021FA04F3F1
:1002D00045EA030130BDC4F10C04C4F1200220FA48
:1002E00002F001FA04F340EA0300294630BD21FA86
:1002F00004F0294630BD94F0000F83F4801306BF4C
:1003000081F480110134013D4EE77FEA645C18BF3F
:100310007FEA655C29D094EA050F08BF90EA020FD6
:1003200005D054EA000C04BF1946104630BD91EACE
:10033000030F1EBF0021002030BD5FEA545C05D1D1
:100340004000494128BF41F0004130BD14F5800410
:100350003CBF01F5801130BD01F0004545F0FE4184
:1003600041F470014FF0000030BD7FEA645C1ABFB9
:10037000194610467FEA655C1CBF0B46024650EAF0
:10038000013406BF52EA033591EA030F41F400211C
:1003900030BD00BF90F0000F04BF0021704730B5A2
:1003A0004FF4806404F132044FF000054FF0000177
:1003B00050E700BF90F0000F04BF0021704730B538
:1003C0004FF4806404F1320410F0004548BF40420D
:1003D0004FF000013EE700BF42004FEAE2014FEA62
:1003E00031014FEA02701FBF12F07F4393F07F4F3D
:1003F00081F06051704732F07F4208BF704793F040
:100400007F4F04BF41F40021704730B54FF4607452
:1004100001F0004521F000411CE700BF50EA010255
:1004200008BF704730B54FF000050AE050EA0102FE
:1004300008BF704730B511F0004502D5404261EB6E
:1004400041014FF4806404F132045FEA915C3FF4AF
:10045000D8AE4FF003025FEADC0C18BF03325FEA4C
:10046000DC0C18BF033202EBDC02C2F1200300FAFD
:1004700003FC20FA02F001FA03FE40EA0E0021FA22
:1004800002F11444BDE600BF70B54FF0FF0C4CF410
:10049000E06C1CEA11541DBF1CEA135594EA0C0FC2
:1004A00095EA0C0F00F0DEF82C4481EA030621EAFD
:1004B0004C5123EA4C5350EA013518BF52EA033538
:1004C00041F4801143F4801338D0A0FB02CE4FF0EA
:1004D0000005E1FB02E506F00042E0FB03E54FF01A
:1004E0000006E1FB03569CF0000F18BF4EF0010E12
:1004F000A4F1FF04B6F5007F64F5407404D25FEA0E
:100500004E0E6D4146EB060642EAC62141EA5551C0
:100510004FEAC52040EA5E504FEACE2EB4F1FD0C02
:1005200088BFBCF5E06F1ED8BEF1004F08BF5FEA80
:10053000500E50F1000041EB045170BD06F0004632
:1005400046EA010140EA020081EA0301B4EB5C04DF
:10055000C2BFD4EB0C0541EA045170BD41F48011D7
:100560004FF0000E013C00F3AB8014F1360FDEBFFC
:10057000002001F0004170BDC4F10004203C35DAD8
:100580000C341BDC04F11404C4F1200500FA05F35B
:1005900020FA04F001FA05F240EA020001F00042FC
:1005A00021F0004110EBD37021FA04F642EB060172
:1005B0005EEA430E08BF20EAD37070BDC4F10C049C
:1005C000C4F1200500FA04F320FA05F001FA04F260
:1005D00040EA020001F0004110EBD37041F100014C
:1005E0005EEA430E08BF20EAD37070BDC4F1200557
:1005F00000FA05F24EEA020E20FA04F301FA05F2BF
:1006000043EA020321FA04F001F0004121FA04F266
:1006100020EA020000EBD3705EEA430E08BF20EA36
:10062000D37070BD94F0000F0FD101F00046400070
:1006300041EB010111F4801F08BF013CF7D041EAF2
:10064000060195F0000F18BF704703F000465200F6
:1006500043EB030313F4801F08BF013DF7D043EAC7
:100660000603704794EA0C0F0CEA135518BF95EA7D
:100670000C0F0CD050EA410618BF52EA4306D1D104
:1006800081EA030101F000414FF0000070BD50EA23
:10069000410606BF1046194652EA430619D094EAAD
:1006A0000C0F02D150EA013613D195EA0C0F05D197
:1006B00052EA03361CBF104619460AD181EA0301EB
:1006C00001F0004141F0FE4141F470014FF00000A3
:1006D00070BD41F0FE4141F4780170BD70B54FF03E
:1006E000FF0C4CF4E06C1CEA11541DBF1CEA1355BE
:1006F00094EA0C0F95EA0C0F00F0A7F8A4EB0504A0
:1007000081EA030E52EA03354FEA013100F0888096
:100710004FEA03334FF0805545EA131343EA12635F
:100720004FEA022245EA111545EA10654FEA002614
:100730000EF000419D4208BF964244F1FD0404F5CD
:10074000407402D25B084FEA3202B61A65EB030529
:100750005B084FEA32024FF480104FF4002CB6EBE6
:10076000020E75EB030E22BFB61A754640EA0C0066
:100770005B084FEA3202B6EB020E75EB030E22BFA6
:10078000B61A754640EA5C005B084FEA3202B6EBE7
:10079000020E75EB030E22BFB61A754640EA9C00A6
:1007A0005B084FEA3202B6EB020E75EB030E22BF76
:1007B000B61A754640EADC0055EA060E18D04FEA34
:1007C000051545EA16754FEA06164FEAC30343EAD4
:1007D00052734FEAC2025FEA1C1CC0D111F4801FA1
:1007E0000BD141EA00014FF000004FF0004CB6E79A
:1007F00011F4801F04BF01430020B4F1FD0C88BF39
:10080000BCF5E06F3FF6AFAEB5EB030C04BFB6EB43
:10081000020C5FEA500C50F1000041EB045170BD36
:100820000EF0004E4EEA113114EB5C04C2BFD4EB63
:100830000C0541EA045170BD41F480114FF0000EE7
:10084000013C90E645EA060E8DE60CEA135594EA63
:100850000C0F08BF95EA0C0F3FF43BAF94EA0C0F66
:100860000AD150EA01347FF434AF95EA0C0F7FF4DB
:1008700025AF104619462CE795EA0C0F06D152EA2F
:1008800003353FF4FDAE1046194622E750EA410613
:1008900018BF52EA43067FF4C5AE50EA41047FF424
:1008A0000DAF52EA43057FF4EBAE12E74FEA410287
:1008B00012F5001215D211D56FF47873B3EB6252B2
:1008C00012D94FEAC12343F0004343EA505311F0D9
:1008D000004F23FA02F018BF404270474FF000006B
:1008E000704750EA013005D111F0004008BF6FF0A9
:1008F000004070474FF00000704700BF4FEA4102D0
:10090000B2F1E04324BFB3F5001CDCF1FE5C0DD96D
:1009100001F0004C4FEAC0024CEA5070B2F1004FB7
:1009200040EB830008BF20F00100704711F0804FBA
:1009300021D113F13872BCBF01F00040704741F47F
:1009400080114FEA5252C2F11802C2F1200C10FA83
:100950000CF320FA02F018BF40F001004FEAC12367
:100960004FEAD32303FA0CFC40EA0C0023FA02F30B
:100970004FEA4303CCE77FEA625307D150EA0133E1
:100980001EBF4FF0FE4040F44000704701F00040B1
:1009900040F0FE4040F40000704700BF80F000408F
:1009A00002E000BF81F0004142001FBF5FEA410347
:1009B00092EA030F7FEA226C7FEA236C6AD04FEA47
:1009C0001262D2EB1363C1BFD2184140484041408C
:1009D000B8BF5B42192B88BF704710F0004F40F43E
:1009E000000020F07F4018BF404211F0004F41F45A
:1009F000000121F07F4118BF494292EA030F3FD026
:100A0000A2F1010241FA03FC10EB0C00C3F1200338
:100A100001FA03F100F0004302D5494260EB4000C7
:100A2000B0F5000F13D3B0F1807F06D340084FEA32
:100A3000310102F10102FE2A51D2B1F1004F40EB27
:100A4000C25008BF20F0010040EA0300704749008F
:100A500040EB0000013A28BFB0F5000FEDD2B0FA2C
:100A600080FCACF1080CB2EB0C0200FA0CF0AABF4F
:100A700000EBC25052421843BCBFD04018437047ED
:100A800092F0000F81F4000106BF80F400000132F3
:100A9000013BB5E74FEA41037FEA226C18BF7FEACA
:100AA000236C21D092EA030F04D092F0000F08BF0C
:100AB0000846704790EA010F1CBF0020704712F0F3
:100AC0007F4F04D1400028BF40F00040704712F132
:100AD00000723CBF00F50000704700F0004343F097
:100AE000FE4040F4000070477FEA226216BF0846CD
:100AF0007FEA23630146420206BF5FEA412390EA90
:100B0000010F40F4800070474FF0000304E000BF85
:100B100010F0004348BF40425FEA000C08BF704736
:100B200043F0964301464FF000001CE050EA0102FA
:100B300008BF70474FF000030AE000BF50EA01020F
:100B400008BF704711F0004302D5404261EB4101FC
:100B50005FEA010C02BF84460146002043F0B64321
:100B600008BFA3F18053A3F50003BCFA8CF2083A46
:100B7000A3EBC25310DB01FA02FC634400FA02FC4F
:100B8000C2F12002BCF1004F20FA02F243EB020056
:100B900008BF20F00100704702F1200201FA02FCB8
:100BA000C2F1200250EA4C0021FA02F243EB0200AB
:100BB00008BF20EADC7070474FF0FF0C1CEAD052EF
:100BC0001EBF1CEAD15392EA0C0F93EA0C0F6FD0B0
:100BD0001A4480EA010C400218BF5FEA41211ED08E
:100BE0004FF0006343EA501043EA5111A0FB01317A
:100BF0000CF00040B1F5000F3EBF490041EAD3714F
:100C00005B0040EA010062F17F02FD2A1DD8B3F1CA
:100C1000004F40EBC25008BF20F00100704790F039
:100C2000000F0CF0004C08BF49024CEA502040EA8B
:100C300051207F3AC2BFD2F1FF0340EAC250704751
:100C400040F400004FF00003013A5DDC12F1190F8F
:100C5000DCBF00F000407047C2F10002410021FA01
:100C600002F1C2F1200200FA02FC5FEA310040F119
:100C7000000053EA4C0308BF20EADC70704792F092
:100C8000000F00F0004C02BF400010F4000F013ACA
:100C9000F9D040EA0C0093F0000F01F0004C02BFC5
:100CA000490011F4000F013BF9D041EA0C018FE734
:100CB0000CEAD15392EA0C0F18BF93EA0C0F0AD03A
:100CC00030F0004C18BF31F0004CD8D180EA010060
:100CD00000F00040704790F0000F17BF90F0004FF9
:100CE000084691F0000F91F0004F14D092EA0C0FDB
:100CF00001D142020FD193EA0C0F03D14B0218BF6E
:100D0000084608D180EA010000F0004040F0FE40B3
:100D100040F40000704740F0FE4040F4400070474F
:100D20004FF0FF0C1CEAD0521EBF1CEAD15392EACE
:100D30000C0F93EA0C0F69D0A2EB030280EA010CBE
:100D400049024FEA402037D04FF0805343EA111157
:100D500043EA10130CF000408B4238BF5B0042F1B5
:100D60007D024FF4000C8B4224BF5B1A40EA0C005A
:100D7000B3EB510F24BFA3EB510340EA5C00B3EB8C
:100D8000910F24BFA3EB910340EA9C00B3EBD10F7A
:100D900024BFA3EBD10340EADC001B0118BF5FEACC
:100DA0001C1CE0D1FD2A3FF650AF8B4240EBC250F5
:100DB00008BF20F0010070470CF0004C4CEA5020B6
:100DC0007F32C2BFD2F1FF0340EAC250704740F405
:100DD00000004FF00003013A37E792F0000F00F0F7
:100DE000004C02BF400010F4000F013AF9D040EA75
:100DF0000C0093F0000F01F0004C02BF490011F409
:100E0000000F013BF9D041EA0C0195E70CEAD15300
:100E100092EA0C0F08D142027FF47DAF93EA0C0FE7
:100E20007FF470AF084676E793EA0C0F04D14B02CB
:100E30003FF44CAF08466EE730F0004C18BF31F07D
:100E4000004CCAD130F000427FF45CAF31F0004377
:100E50007FF43CAF5FE700BF4FF0FF3C06E000BF10
:100E60004FF0010C02E000BF4FF0010C4DF804CD33
:100E70004FEA40024FEA41037FEA226C18BF7FEA43
:100E8000236C11D001B052EA530C18BF90EA010F45
:100E900058BFB2EB030088BFC81738BF6FEAE170D4
:100EA00018BF40F0010070477FEA226C02D15FEA70
:100EB000402C05D17FEA236CE4D15FEA412CE1D0DC
:100EC0005DF8040B704700BF844608466146FFE7A3
:100ED0000FB5FFF7C9FF002848BF10F1000F0FBD85
:100EE0004DF808EDFFF7F4FF0CBF012000205DF87E
:100EF00008FB00BF4DF808EDFFF7EAFF34BF012003
:100F000000205DF808FB00BF4DF808EDFFF7E0FF9B
:100F100094BF012000205DF808FB00BF4DF808EDEC
:100F2000FFF7D2FF94BF012000205DF808FB00BF4F
:100F30004DF808EDFFF7C8FF34BF012000205DF831
:100F400008FB00BF4FEA4002B2F1FE4F0FD34FF053
:100F50009E03B3EB12620DD94FEA002343F0004326
:100F600010F0004F23FA02F018BF404270474FF0D4
:100F70000000704712F1610F01D1420205D110F05B
:100F8000004008BF6FF0004070474FF0000070470E
:100F900042000ED2B2F1FE4F0BD34FF09E03B3EBE3
:100FA000126209D44FEA002343F0004323FA02F00F
:100FB00070474FF00000704712F1610F01D14202FB
:100FC00002D14FF0FF3070474FF00000704700BF74
:100FD0007BB972B90029BEBF00204FF0004106E086
:100FE00008BF00281CBF6FF000414FF0FF3000F039
:100FF0003FB8ADF1080C6DE904CE002909DB002BE8
:101000001ADB05F067FFDDF804E0DDE9022304B038
:101010007047404261EB4101002B1BDB05F05AFF9A
:10102000DDF804E0DDE9022304B0404261EB410158
:10103000524263EB43037047524263EB430305F0B4
:1010400049FFDDF804E0DDE9022304B0404261EB32
:1010500041017047524263EB430305F03BFFDDF86B
:1010600004E0DDE9022304B0524263EB430370471E
:10107000704700BF0348044B834202D0034B03B1C7
:1010800018477047C8000020C8000020000000007A
:101090000548064B1B1AD90F01EBA301491002D0DA
:1010A000034B03B118477047C8000020C800002058
:1010B0000000000010B5064C237843B9FFF7DAFFB3
:1010C000044B13B10448AFF300800123237010BD1B
:1010D000C800002000000000AC82000808B5054BE5
:1010E0001BB105490548AFF30080BDE80840FFF794
:1010F000CFBF00BF00000000CC000020AC82000881
:1011000082B03C4B1A6842F001021A6059683A4AB0
:101110000A405A601A6822F0847222F480321A60FF
:101120001A6822F480221A605A6822F4FE025A6079
:101130004FF41F029A600022009201921A6842F452
:1011400080321A601A46136803F400330193009B3F
:1011500001330093019B1BB9009BB3F5A06FF2D143
:10116000244B1B6813F4003F14BF01230023019399
:10117000019B012B05D0214B4FF000629A6002B019
:1011800070471F4B1A6842F010021A601A6822F06A
:1011900007021A601A6842F002021A60A3F580532F
:1011A0005A685A605A685A605A6842F480625A60B3
:1011B0005A6822F47C125A605A6842F4E8125A6063
:1011C0001A6842F080721A601A46136813F0007FA2
:1011D000FBD0084B5A6822F003025A605A6842F06A
:1011E00002025A601A46536803F00C03082BFAD126
:1011F000C1E700BF001002400000FFF800ED00E072
:101200000020024040F0BF6040F40030014BD86045
:10121000704700BF00ED00E0C37803B3164BDA68F7
:10122000D243C2F30222C2F1040341789940837889
:101230004FF00F0C2CFA02F2134002780B431B0103
:10124000DBB20E490A4482F800330378580903F0F0
:101250001F03012202FA03F341F82030704703789C
:101260005A0903F01F030121994002F12003034AA8
:1012700042F82310704700BF00ED00E000E100E0FD
:101280008379002B35D010B41F4B1A68016822EA0D
:1012900001021A605A68016822EA01025A60027962
:1012A00002F1804202F58232116804682143116024
:1012B0009A68016822EA01029A60DA68016822EA03
:1012C0000102DA604379102B09D003F1804303F562
:1012D00082331A6801680A431A6010BC70470A4BCF
:1012E0009A6801680A439A60DA6801680A43DA601A
:1012F000F3E7037903F1804303F582331A68016849
:1013000022EA01021A60704700040140054A13688E
:101310005269024204D01840003818BF01207047BB
:101320000020704700040140014B5861704700BF26
:10133000000401402DE9F041CB7803F00F0E13F0CB
:10134000100F1CBF8B784EEA030E0B78F3B10568C3
:10135000002301260F2703E044610133082B14D03A
:1013600006FA03F40A8834EA0202F6D19A0007FA70
:1013700002FC25EA0C050EFA02F21543CA78282A67
:10138000EAD0482A08BF0461E7E705600B88FF2B15
:1013900025D9D0F80480002301260F2702E001336D
:1013A000082B1AD003F1080206FA02F2B1F800C0C5
:1013B00032EA0C0CF3D19C0007FA04F528EA050583
:1013C0000EFA04F444EA0508CC78282C08BF4261E0
:1013D000CC78482C08BF0261E1E7C0F80480BDE882
:1013E000F08180680840003818BF01207047016113
:1013F00070470AB1016170474161704701F0030312
:101400009B0001F0FC0101F1804101F580318A6807
:101410004FF00F0C0CFA03FC22EA0C028A608A6877
:10142000984010438860704710B41F4B5B6803F00E
:101430000C03082B20D01D4B03601B4A5168C1F3DD
:1014400003111B4C615CCB4043605168C1F3022126
:10145000615C23FA01F181605168C1F3C221615CD2
:10146000CB40C3605268C2F3813212498A5CB3FB3D
:10147000F2F3036110BC70470B4A53685268C3F320
:101480008343023312F4803F03D10B4A02FB03F380
:10149000D2E7054A526812F4003F14BF064A034AD5
:1014A00002FB03F3C8E700BF0010024000127A00FD
:1014B000C8820008C482000800093D0021B1054A25
:1014C0009369034393617047024A936923EA0003D7
:1014D000936170470010024021B1054AD36903436C
:1014E000D3617047024AD36923EA0003D36170478E
:1014F0000010024003889BB2284A90421BD002F59C
:101500000062904217D0B0F1804F14D0A2F598320B
:10151000904210D002F5806290420CD002F58062B9
:10152000904208D01E4A904224D103808B88838544
:101530000B8803851BE023F070034A88134323F4D0
:101540004073CA88134303808B8883850B88038587
:10155000124B984209D0134B984206D0124B984236
:1015600003D003F58063984212D10B7A03860123DE
:101570008382704702F580629042D6D023F4407394
:10158000CA88134303808B8883850B880385E5E72E
:1015900003F580639842E8D0E9E700BF002C0140E2
:1015A00000100040003401400040014029B1038890
:1015B0009BB243F0010303807047038823F00103CB
:1015C0001B041B0C0380704722B183899BB20B4321
:1015D0008381704783899BB223EA0103838170472B
:1015E000C94389B201827047038A808980B2194257
:1015F00004D00840003818BF012070470020704711
:10160000C94389B20182704730B587B004460D46A0
:10161000038A9BB223F44053CA881343038283890D
:101620009BB223F4B05323F00C038A8813430A8936
:1016300013434A8913439BB28381838A9BB223F469
:1016400040738A891343838201A8FFF7EDFE194B8B
:101650009C420CBF049B039BA28912F4004F03EB36
:10166000830303EB83032A6814BF52009200B3FB89
:10167000F2F3114AA2FB031252091101642000FB8C
:101680001233A28912F4004F0BD11B0132330A4AE4
:10169000A2FB0323C3F343130B439BB2238107B085
:1016A00030BDDB003233044AA2FB0323C3F34213F1
:1016B0000B43F2E7003801401F85EB5129B18389C4
:1016C0009BB243F4005383817047838923F4005312
:1016D0001B041B0C83817047C1F3421C01F01F01E6
:1016E00001238B40BCF1010F09D0BCF1020F0CBFEC
:1016F000103014302AB102681343036070470C3075
:10170000F8E7026822EA030303607047C1F30801A7
:1017100081807047038801EA0300003818BF012068
:101720007047000008B5024B1B680420984708BDAD
:10173000A439002008B5024B1B680320984708BD58
:10174000A439002010B5504B1B785BB201330B2B32
:101750000CD8DFE803F0060C1724313E4B586572B5
:101760007F8C494B494A5A60494A9A6010BD03F040
:1017700013F8484805F05CFE434B474A5A60474A15
:101780009A60F3E703F016F83F4C217849B24448D9
:1017900005F0DEFD434B6360434BA360E6E703F0D7
:1017A0003FF8394C217849B23D4805F0D1FD3F4B17
:1017B00063603F4BA360D9E703F068F8324C2178AF
:1017C00049B2374805F0C4FD3A4B63603A4BA36019
:1017D000CCE703F091F82C4C217849B2304805F061
:1017E000B7FD364B6360364BA360BFE703F087F865
:1017F000254C217849B22A4805F0AAFD314B636097
:10180000314BA360B2E703F07DF81F4C217849B259
:10181000234805F09DFD2D4B63602D4BA360A5E78C
:1018200003F073F8184C217849B21D4805F090FD7B
:10183000284B6360284BA36098E703F069F8124CCB
:10184000217849B2164805F083FD244B6360244B90
:10185000A3608BE703F05FF80B4C217849B2104886
:1018600005F076FD1F4B63601F4BA3607EE703F01E
:1018700055F8054C217849B2094805F069FD1B4B24
:1018800063601B4BA36071E7E80000202517000888
:1018900035170008D8820008A1470008AB470008A8
:1018A000F48200081D4800081F4800088948000805
:1018B0008B480008F5480008F7480008FB48000876
:1018C000FD480008014900080349000807490008CD
:1018D000094900080D4900080F490008134900088C
:1018E00015490008194900081B4900081F4900084C
:1018F0002149000808B502F0A7FC02F04BFE02F0F7
:1019000081FD00F05BFA064B064A5A60064A9A606F
:1019100000221A70054805F01BFDFFF713FF08BDF4
:10192000E800002025170008351700080483000888
:1019300008B5094B1B7843B1012B0CD1064B002293
:101940001A70064805F074FD05E0034B01221A7079
:10195000034805F06DFD08BDF40000202483000855
:101960001483000810B52020FFF7D0FC012800D018
:1019700010BD0A4C207800F07BF923780133DBB2EC
:10198000952B04D823702020FFF7CEFCF0E7034B03
:1019900000221A70024B9B689847F4E7E40000208D
:1019A00008010020024A136823F001031360704706
:1019B00000040140024A136843F0010313607047BA
:1019C0000004014000EBC000C0004FF0E02358616C
:1019D00000229A6105221A611A46136913F4803FA6
:1019E000FBD04FF0E02304221A61704758B138B59C
:1019F000441E4FF47A752846FFF7E4FF013CB4F12A
:101A0000FF3FF8D138BD704708B502468021034832
:101A1000FFF7EFFC0520FFF7D5FF08BD000C0140E4
:101A200008B5024640210348FFF7E3FC0520FFF715
:101A3000C9FF08BD000C014008B50120FFF7E4FF15
:101A40000120FFF7EDFF0020FFF7DEFF0020FFF78A
:101A5000E7FF08BD2DE9F041054600244FF080085E
:101A60000127264648FA04F02840FFF7CDFF384604
:101A7000FFF7D6FF3046FFF7D3FF0134082CF1D132
:101A8000BDE8F08108B50020FFF7BEFF0120FFF799
:101A9000C7FF0120FFF7B8FF08BD000010B5012007
:101AA000FFF7B2FF0120FFF7BBFF80210448FFF7DB
:101AB00098FC04460020FFF7B3FF204610BD00BF8E
:101AC000000C01402DE9F0410120FFF79DFF0024AB
:101AD00025464FF001080D4F802605E00020FFF756
:101AE0009FFF0134082C0DD04046FFF799FF314687
:101AF0003846FFF776FC0128F0D146FA04F31D437F
:101B0000EDB2EBE72846BDE8F08100BF000C0140D4
:101B100010B582B001210820FFF7D0FC14238DF806
:101B20000730C023ADF8043003238DF80630084C8D
:101B300001A92046FFF7FEFB012280212046FFF786
:101B400058FC012240212046FFF753FC02B010BD93
:101B5000000C0140F8B504460F4616461D46FFF737
:101B60006BFF600000F0FE00FFF774FFFFF796FFC9
:101B70003846FFF76FFFFFF791FF4EB12C46354413
:101B800014F8010BFFF766FFFFF788FFAC42F7D1AF
:101B9000FFF778FF0020F8BD2DE9F04105460E461D
:101BA00017461C46FFF748FF6D00EDB22846FFF7C9
:101BB00051FFFFF773FF3046FFF74CFFFFF76EFF53
:101BC000FFF73AFF681CC0B2FFF744FFFFF766FF5C
:101BD00027B37E1EF6B22644274400254FF00108A5
:101BE0000EE0FFF76FFF04F8010B2846FFF70CFF2C
:101BF0004046FFF715FF2846FFF712FFBC420DD005
:101C0000A642EED1FFF75EFF20700120FFF7FCFE39
:101C10000120FFF705FF0020FFF702FFFFF732FF6B
:101C20000020BDE8F0810000064B1A6822F0010296
:101C30001A601A6842F020021A60034B01221A70DF
:101C4000704700BF0004014008010020064B1A68DD
:101C500042F001021A601A6822F020021A60034B57
:101C600002221A70704700BF0004014008010020E2
:101C70002DE9F04F85B0044602AB06223B216820D7
:101C8000FFF78AFF9DF80A20494E7388C3EB0223B1
:101C90009DF80B9099440FFA89F99DF80C20B388B0
:101CA000C3EB02239DF80D8098440FFA88F8414F4A
:101CB00004EB440507EB85059DF808203388C3EB4A
:101CC00002239DF80900184400B2FEF773FB0022BE
:101CD000394BFEF7D9FBFEF711FEE860631C03EBFE
:101CE000430307EB830B4846FEF764FB0022324BAD
:101CF000FEF7CAFBFEF702FECBF804004046FEF7F3
:101D000059FB00222C4BFEF7BFFBFEF7F7FD686185
:101D10006B46062243216820FFF73EFF9DF8022014
:101D20007388C3EB02239DF8039099440FFA89F955
:101D30009DF80420B388C3EB02239DF805809844E6
:101D40000FFA88F89DF800203388C3EB02239DF832
:101D50000100184400B2FEF72DFB13A3D3E90023C2
:101D6000FEF7BCFCFEF7CAFDC5F814074846FEF7AF
:101D700021FB0DA3D3E90023FEF7B0FCFEF7BEFD67
:101D8000C5F818074046FEF715FB07A3D3E9002363
:101D9000FEF7A4FCFEF7B2FDC5F81C0705B0BDE8D0
:101DA000F08F00BFAFF300802121CA175C75B040EF
:101DB000FC000020080100200000203F08B500F0D2
:101DC0000FFA034B034A5A60034A9A6008BD00BFEA
:101DD00008010020291C00084D1C00082DE9F041D5
:101DE000194C1A4D04F5E1680026194FD4F8140770
:101DF000FEF7F2FA32463B46FEF746FB06F008FADB
:101E0000FEF754FD2870D4F81807FEF7E5FA3246BD
:101E10003B46FEF739FB06F0FBF9FEF747FD68701D
:101E2000D4F81C07FEF7D8FA32463B46FEF72CFBE7
:101E300006F0EEF9FEF73AFDA8700C340335444580
:101E4000D4D1BDE8F08100BF08010020C0370020D8
:101E500000003040000000002DE9F04782B000246F
:101E60008DF8074080238DF80630FFF7B7FF564BFB
:101E7000186804F0C5F88DF807409DF807300C2B62
:101E800000F28A80A146DFF844814DA7D7E90067B8
:101E900000244F4D09E09DF807300133DBB28DF887
:101EA00007309DF807300C2B2BD89DF807A05FFA60
:101EB0008AFA9DF8073018F90300FEF77BFA3246DC
:101EC0003B46FEF70BFC22462B46FEF7DDFA0246A8
:101ED0000B4651463F4805F03BFA9DF807209DF818
:101EE00006305BB218F902209A42D4DB9DF8073025
:101EF00018F903308DF806309DF807904FFA89F9EC
:101F0000C9E79DF806305BB23E2B4ADDB9F10C0FF4
:101F100047D009F101030D2B48D8DFE803F0420751
:101F20000D1115191D2125292D3135392A4805F0A6
:101F30000FFA4FF0000939E0284805F009FA35E0BA
:101F4000274805F005FA31E0264805F001FA2DE0B2
:101F5000254805F0FDF929E0244805F0F9F925E0C8
:101F6000234805F0F5F921E0224805F0F1F91DE0DC
:101F7000214805F0EDF919E0204805F0E9F915E0F0
:101F80001F4805F0E5F911E01E4805F0E1F90DE004
:101F90001D4805F0DDF909E09DF806305BB23E2BE7
:101FA000C4DC194805F0D4F94FF0FF390A2005F0D8
:101FB000E1F9484602B0BDE8F08700BFAFF300800A
:101FC0000000000000C05F40AC0F0020B0370020D0
:101FD00000005940348300085C83000868830008CF
:101FE00074830008808300088C83000898830008AD
:101FF000A4830008B0830008BC830008C4830008E1
:10200000D0830008D88300084C83000880B5FFF710
:1020100071FC514B1B68042098474FF420514F48E6
:1020200003F0C0FB40F2931003F0F0FF4C4C20464D
:1020300003F05AFC4B4804F031FD0546E6684A4877
:1020400004F092FA2946B0470646D4F81880474F64
:10205000384604F0EFF83146C0470646D4F80C8005
:10206000434804F081FA3146C0470646D4F8188048
:10207000384604F0DFF83146C0470646E7683D4879
:1020800004F07AF93146B8470646E7683A4804F062
:10209000D9FC3146B8470646E768384804F048FCA2
:1020A0003146B8470646E768354804F0E5FE314654
:1020B000B8470646E768334804F072FE3146B84731
:1020C00002462946204603F0A1FE2F4B1C602F48F4
:1020D00005F03EF92E4C2F4E1F4D25E02E4B1B7860
:1020E00013BB2D4F7B689847FFF75CFC2B680020E3
:1020F00098473B78022BFDD12B6801209847FFF7CA
:10210000ABFE264B18701B785BB2B3F1FF3F04D0D7
:10211000234B1B78C3B1012B1AD01F4B00221A701E
:1021200063689847FFF746FC2378022BD6D0032B31
:10213000FAD1304605F07CF92B6803209847FFF769
:10214000F7FB63689847EFE7164B5B689847E4E74F
:10215000144B9B689847E0E7A4390020B00F00209B
:10216000240F0020C0A900081CA800089A99993ED5
:10217000C4970008B4970008B0970008D08B0008F7
:10218000CC8B0008A48B0008AC0F0020E083000873
:102190009C390020E883000808010020000000208E
:1021A000F4000020E800002090F90030002B01DD51
:1021B000002070470EDB90F90130002B01DD01207B
:1021C000704709DB90F90230002B07DCACBF072019
:1021D0000620704704207047052070470220704792
:1021E00070B58EB001210920FFF768F948238DF8FA
:1021F00037302024ADF8344003238DF836300DA954
:102200007848FFF797F805210120FFF7F7F80B94BE
:1022100001248DF8324000258DF830500C238DF8C4
:1022200031300BA8FFF72CF817238DF828308DF8E4
:102230002B4006238DF829308DF82A300AA8FEF7A6
:10224000EBFF694A136823F020031360FFF760FC7B
:1022500009958DF8205008AB224675216820FFF7BC
:102260009BFC9DF82030682B05D1002001F016F86A
:1022700070B10EB070BDBFF34F8F5C49CA6802F4F5
:10228000E0625B4B1343CB60BFF34F8F00BFFDE7B2
:10229000782000F075FF002848D0782000F0A6FDD7
:1022A000002847D0642000F01BFF002846D001F032
:1022B0003FFB002846D04F4E3046FFF775FF0446DF
:1022C000F01CFFF771FF0546B01DFFF76DFF83019E
:1022D00043EAC500204380B201F036FB002835D028
:1022E00040F2731001F0CAFE002833D0642001F0E0
:1022F000B1FC002832D005A902A801F063F9072833
:1023000030D0002001F014F9002863D009A801F0B2
:10231000C1FB002862D0042000F07AFC4FF4FA7070
:1023200000F016FC344805F083F8A2E7334805F0C6
:102330007FF8B2E7324805F07BF8B3E7314805F0A3
:1023400077F8B4E7304805F073F8B4E72F4805F0A4
:102350006FF8C5E72E4805F06BF8C7E72D4805F084
:1023600067F8C8E701A800F0F9FC019C0298FEF7A5
:10237000CFFB2146FEF720FCFEF7E4FD0290039818
:10238000FEF7C6FB2146FEF717FCFEF7DBFD0390C8
:102390000498FEF7BDFB2146FEF70EFCFEF7D2FDCA
:1023A000049002A801F076FB0DF1020000F0FCFCA5
:1023B000BDF80220059B02FB03F30593069B02FB7D
:1023C00003F30693079B02FB03F3079305A801F0B1
:1023D000D7FB96E7104805F02BF897E70F4805F074
:1023E00027F898E7000C01400004014000ED00E0F0
:1023F0000400FA05040000209C8500084C840008B5
:102400006C84000890840008B8840008EC840008FC
:1024100014850008388500085C8500088085000860
:1024200000B583B0204B93F82430BBB1003818BFFF
:10243000012040008DF807001B4B196858680DF10A
:1024400007030122497C0078FFF784FB00BB9DF85D
:102450000720154B5A7403B05DF804FB124B9B7AAE
:10246000CBB118B1104B5B7CC3B901208DF80700CC
:102470000D4B196858680DF107030122497C00785B
:10248000FFF768FB60B99DF80720074B5A74E2E735
:102490004FF0FF30DFE74FF0FF30DCE70020DAE7F6
:1024A0004FF0FF30D7E700BF100000202DE9F04FBC
:1024B00085B004460D46164601238DF804300023EE
:1024C0008DF80530544B1968586801AB0222497DDC
:1024D0000078FFF73FFB002840F0ED81C820FFF7B0
:1024E00085FA00238DF804304B4B1968586801AB0E
:1024F0000122497C0078FFF72DFB002840F0DE81A7
:10250000454B1968586801AB012249790078FFF7FB
:1025100021FB002840F0D5813F4B1968586801AB7A
:102520000122497D0078FFF715FB002840F0CC819F
:10253000394B1968586801AB0122897E0078FFF792
:1025400009FB002840F0C381334B1968586801AB80
:10255000012209790078FFF7FDFA002840F0BA81DE
:102560000C238DF804302C4B1968586801AB0122FC
:1025700009790078FFF7EEFA002840F0AE810F20CD
:10258000FFF734FA244B9A6A527A8DF804201968BE
:10259000586801AB012289780078FFF7DBFA002840
:1025A00040F09E811C4B9A6A127A8DF804201968BB
:1025B000586801AB012249780078FFF7CBFA002870
:1025C00040F0918156B3144B9A6A927A62F01F02DE
:1025D0008DF804201968586801AB012289790078C8
:1025E000FFF7B8FA002840F081810B4B9A6AD27A43
:1025F00062F01F028DF804201968586801AB0122AF
:10260000C9790078FFF7A6FA002840F07581C82044
:10261000FFF7ECF921E000BF10000020C14B9A6ADF
:10262000927A8DF804201968586801AB01228979E3
:102630000078FFF78FFA002840F05B8118238DF8AF
:102640000430B84B1968586801AB0122C979007889
:10265000FFF780FA002840F0618140238DF80430B4
:10266000B04B1968586801AB012209790078FFF76F
:1026700071FA002840F0438178238DF80430A94B8B
:102680001968586801AB012249790078FFF762FAAE
:10269000002840F037813220FFF7A8F900238DF899
:1026A0000430A04B1968586801AB012249790078C1
:1026B000FFF750FA002840F028819A4B19685868B3
:1026C00001AB0222097B0078FFF766FA83460028F7
:1026D00040F01E819DF804309DF8057047EA0327FD
:1026E000914BA3FB0737C7F3C7070023A3606360C1
:1026F0002360AB606B602B60002F53D01E460DF142
:10270000040ADFF820824FF00C09D8F80010D8F83E
:10271000040053464A46497B0078FFF73DFA0028FB
:1027200040F0F9809DF806309DF8072042EA032228
:1027300012B29DF808109DF8093043EA01231BB23C
:102740009DF804009DF8051041EA002109B22868AF
:1027500008442860696811446960AA681A44AA603C
:102760009DF80C309DF80D2042EA032212B29DF82C
:102770000E109DF80F3043EA01231BB29DF80A00AA
:102780009DF80B1041EA002109B22068084420603E
:10279000616811446160A2681A44A2600136F3B214
:1027A0009F42B2D80026D4F800C04FEAEC71090469
:1027B000832200234FEA0C4041EA1C41FEF708FC4B
:1027C0003A463346FEF704FC2060D4F804C04FEAD2
:1027D000EC710904832200234FEA0C4041EA1C41BA
:1027E000FEF7F6FB3A463346FEF7F2FB6060D4F89C
:1027F00008C04FEAEC710904832200234FEA0C4021
:1028000041EA1C41FEF7E4FB3A463346FEF7E0FBA3
:10281000A0602B68DA17120442EA13421B04114627
:10282000B24236DBD80A3A46334640EA4150C91232
:10283000FEF7CEFB28606B68DA17120442EA1342F7
:102840001B041146002A2ADBD80A3A46334640EADE
:102850004150C912FEF7BCFB6860AB68DA1712047E
:1028600042EA13421B041146002A1EDBD80A3A46EC
:10287000334640EA4150C912FEF7AAFB0028CCBFFC
:10288000A0F5803000F58030A860584605B0BDE85E
:10289000F08F40F2FF715B1842F10001C2E740F295
:1028A000FF715B1842F10001CEE740F2FF715B1847
:1028B00042F10001DAE74FF0FF3BE6E74FF0FF3B64
:1028C000E3E74FF0FF3BE0E74FF0FF3BDDE74FF082
:1028D000FF3BDAE74FF0FF3BD7E74FF0FF3BD4E792
:1028E0004FF0FF3BD1E74FF0FF3BCEE74FF0FF3B10
:1028F000CBE74FF0FF3BC8E74FF0FF3BC5E74FF09A
:10290000FF3BC2E74FF0FF3BBFE74FF0FF3BBCE7A9
:102910004FF0FF3BB9E74FF0FF3BB6E74FF0FF3B0F
:10292000B3E700BF10000020ABAAAAAA794B9B7A9C
:10293000002B00F0D08000B583B000238DF8073065
:10294000744B196858680DF107030122497C00781F
:10295000FFF700F9002840F0C1806E4B19685868F5
:102960000DF10703012249790078FFF7F3F80028F9
:1029700040F0B780674B196858680DF107030122D2
:1029800009790078FFF7E6F8002840F0AD80614B48
:1029900093F82430002B51D00C238DF807305D4B79
:1029A000196858680DF10703012209790078FFF7CB
:1029B000D1F8002840F09B803220FFF717F8C023A1
:1029C0008DF80730534B9B7A13F0010F1CBFE023A7
:1029D0008DF807304F4B196858680DF10703012235
:1029E00009790078FFF7B6F8002840F08380494A5B
:1029F000537C003B18BF01235B008DF80730116842
:102A000050680DF107030122497C0078FFF7A2F816
:102A1000002872D100238DF807303E4B19685868A2
:102A20000DF10703012249790078FFF793F8003888
:102A300018BF0120404203B05DF804FB04238DF869
:102A40000730344B196858680DF1070301220979E2
:102A50000078FFF77FF8002852D12E4B9B7C002B8B
:102A600037D12C4B9B7A13F0010F14BF6023402306
:102A70008DF80730274B196858680DF107030122BC
:102A800009790078FFF766F800283CD13220FEF77C
:102A9000ADFF204B5A7C003A18BF01228DF8072069
:102AA000196858680DF107030122497C0078FFF787
:102AB00051F858BB184B53F8101C53F80C0C01225A
:102AC00049790078FFF746F8003818BF01204042E6
:102AD000B1E74023CCE74FF0FF3070474FF0FF30B5
:102AE000A9E74FF0FF30A6E74FF0FF30A3E74FF024
:102AF000FF30A0E74FF0FF309DE74FF0FF309AE73F
:102B00004FF0FF3097E74FF0FF3094E74FF0FF3082
:102B100091E700BF10000020200000200B4B1B7A23
:102B2000032B0ED8DFE803F00F02070A4FF4FA7305
:102B30000380002070474FF47A73F9E74FF4FA638B
:102B4000F6E70023F4E7FA23F2E700BF10000020C5
:102B50001F4B9B7A8BB3B0F57A7F0FD009D8FA2838
:102B600029D0B0F5FA7F01D1082308E04FF0FF30FB
:102B70007047B0F5FA6F23D1182300E0102300B599
:102B800083B08DF80730124A127AB2EBD30F1AD005
:102B90000F4B196858680DF10703012289790078F5
:102BA000FEF7D8FF88B99DF80730DB08084A137292
:102BB00003B05DF804FB0023E1E74FF0FF307047FE
:102BC0004FF0FF3070470020F2E74FF0FF30EFE7A3
:102BD000100000200D4B5B7A032B12D8DFE803F0C6
:102BE0000F020B0D04230370084AD27C62B15B0014
:102BF0000370002070470823F5E71023F3E7022352
:102C0000F1E74FF0FF3070470020704710000020C0
:102C10001E4B9B7A7BB302380E282FD8DFE800F0DA
:102C2000292E082E2E2E0A2E2E2E2E2E2E2E270048
:102C3000082300E0102300B583B08DF80730134A55
:102C4000527AB2EBD30F1CD0104B196858680DF1B3
:102C500007030122C9790078FEF77CFF98B99DF837
:102C60000730DB08094A537203B05DF804FB1823F0
:102C7000E1E70023DFE74FF0FF3070474FF0FF3010
:102C800070470020F0E74FF0FF30EDE71000002024
:102C90000C4BDB7A013B052B10D8DFE803F0110366
:102CA00007090B0D62230380002070472A23FAE7EF
:102CB0001423F8E70A23F6E70523F4E70023F2E7F5
:102CC000BC23F0E7100000201C4B9B7A6BB300B5CF
:102CD00083B0BB280AD8612821D8292821D81328F5
:102CE00021D809288CBF0523062300E001238DF895
:102CF0000730124AD27A9A421AD0104B1968586893
:102D00000DF10703012289780078FEF723FF88B9C7
:102D10009DF80720094BDA7203B05DF804FB02232B
:102D2000E5E70323E3E70423E1E74FF0FF307047D3
:102D30000020F1E74FF0FF30EEE700BF1000002069
:102D4000054B93F8243023B9034BDB890380002023
:102D500070474FF0FF307047100000200D4B1B7A7A
:102D6000032B13D8DFE803F002060A0E0A4B0360B8
:102D700000207047094B036000207047084B036038
:102D800000207047074B0360002070474FF0FF3072
:102D9000704700BF10000020000003430000834282
:102DA00033330342333383410F4B5B7A032B16D803
:102DB000DFE803F012020C0F4FF4005303800A4ABD
:102DC000D27C7AB15B080380002070474FF48053B7
:102DD000F4E74FF40063F1E74FF48043EEE74FF080
:102DE000FF307047002070471000002070B5144B72
:102DF00093F82430F3B9124B9D7AF5B100F0FE043C
:102E00001E7C25401D742D1B18BF4FF0FF351B7D08
:102E100023430BD00120FFF703FB64B1FFF786FDCE
:102E200048B1074B1E744FF0FF3504E00020FFF758
:102E3000F7FA00E00025284670BD4FF0FF35FAE7AD
:102E400010000020534B9B7C834200F0918010B512
:102E500082B00446002844D04E4B196858680DF1E2
:102E60000703012209790078FEF796FE002840F05A
:102E700081809DF8073023F020038DF80730454B03
:102E8000196858680DF10703012209790078FEF7E7
:102E900061FE002871D10320FEF7A8FD02238DF802
:102EA00007303C4B93F8223013B182238DF8073062
:102EB000384B93F823302BB19DF8073043F03003A3
:102EC0008DF80730334B196858680DF1070301225C
:102ED000C97D0078FEF73EFE002844D04FF0FF3059
:102EE00044E02C4B196858680DF107030122097959
:102EF0000078FEF751FE002842D1264B9B7A13F052
:102F0000010F9DF8073014BF43F0200303F0DF03E7
:102F10008DF807301F4B196858680DF1070301221F
:102F200009790078FEF716FE68BB0320FEF75EFD08
:102F3000184A92F82230003B18BF0123DB018DF8BC
:102F4000073092F823201AB143F030038DF8073090
:102F5000104B196858680DF107030122C97D0078EC
:102F6000FEF7F8FD90B90B4B9C74002002B010BD29
:102F7000002070474FF0FF30F8E74FF0FF30F5E7E3
:102F80004FF0FF30F2E74FF0FF30EFE74FF0FF3048
:102F9000ECE700BF10000020194B93F82330834268
:102FA00029D010B582B0044600280CBF0346302358
:102FB0008DF80730124A927C1AB143F002038DF863
:102FC00007300F4B93F822302BB19DF8073063F098
:102FD0007F038DF807300A4B196858680DF1070315
:102FE0000122C97D0078FEF7B5FD30B9044B83F8A6
:102FF000234002B010BD002070474FF0FF30F8E7CB
:103000001000002010B582B028285ED80446D0B940
:103010000020FFF7C1FF00238DF8043007238DF84F
:1030200005302E4B1968586801AB0222497D0078A3
:10303000FEF790FD044600284AD1284B00221A755D
:10304000204602B010BD0120FFF7A6FF20238DF817
:103050000430012C24D0052C29D9142C2ED802237D
:103060008DF805300A20FFF72FFE9DF805309B01F3
:1030700043F007038DF80530184B1968586801AB09
:103080000222497D0078FEF765FD044618BB134B0C
:1030900008229A72187301221A75FFF7A7FECFE76C
:1030A00000238DF805300520FFF70EFEDDE7012334
:1030B0008DF805300520FFF707FED6E703238DF8CE
:1030C00005301420FFF700FECFE74FF0FF34B7E7DD
:1030D0004FF0FF34B4E74FF0FF34B1E710000020A9
:1030E00010B582B0254B9B7A002B3DD00446234B74
:1030F00093F82430002B3AD1204B1B7D33B1431E73
:103100009BB2272B2CD90020FFF77CFFB4F57A7FE8
:1031100028BF4FF47A74042C38BF04244FF47A7318
:1031200093FBF4F3013B8DF80730144B1968586892
:103130000DF10703012249780078FEF70BFD0446E4
:10314000C0B99DF8073001334FF47A7090FBF3F06B
:103150000A4BD8814008FFF7B7FD204602B010BDEA
:10316000FFF750FF0024F8E74FF0FF34F5E74FF08A
:10317000FF34F2E74FF0FF34EFE700BF100000200C
:1031800010B582B0044610F0700F4BD001228DF8BC
:103190000720414B196858680DF10703497D0078F5
:1031A000FEF7D8FC002858D19DF8073023F04003E3
:1031B000394A137300238DF8073014F0400F48D0BC
:1031C00014F0200F05D19DF8073043F002038DF86D
:1031D000073014F0100F05D19DF8073043F00103BC
:1031E0008DF8073014F0080F43D19DF8073043F0F5
:1031F00038038DF80730284B196858680DF107031C
:103200000122897D0078FEF7A5FC60BB002C3ED131
:10321000214B9C7200241C753220FEF7E7FB2046F0
:1032200002B010BDB0FA80F35B099B018DF8073046
:10323000194B196858680DF107030122497D007880
:10324000FEF788FC48B99DF8073023F04003124A86
:10325000137304238DF80730B2E70F4B00229A72E4
:103260004FF0FF30DCE70C4B00229A724FF0FF303A
:10327000D6E7094B196858680DF107030122897DCB
:103280000078FEF767FC0028EDD1082CC0D00020A4
:10329000FFF782FEBCE700BF1000002010B582B02F
:1032A00080238DF80030384B196858686B4601222E
:1032B000497D0078FEF74EFC00284DD16420FEF7D2
:1032C00095FB00238DF800302F4B196858686B462A
:1032D0000122497D0078FEF73DFC00283FD12A4BB2
:1032E0000022DA74FF21997219725972D9724FF65D
:1032F000FF70D881197499740121197383F8221011
:1033000083F823205A751A75C3F81620C3F81A20BB
:10331000C3F81E2083F8242083F82520DA844FF494
:10332000FA60FFF715FCE8B90220FFF771FCE0B97D
:103330002A20FFF7C9FCD8B93220FFF7D1FED0B957
:10334000FFF754FDD0B9FFF77DFD0446C8B9FFF77C
:1033500017FF204602B010BD4FF0FF34F9E74FF0E1
:10336000FF34F6E74FF0FF34F3E74FF0FF34F0E7B8
:103370004FF0FF34EDE74FF0FF34EAE74FF0FF3452
:10338000E7E74FF0FF34E4E71000002052B370B5D8
:1033900082B00C461646194B9B7A33B3030A8DF85C
:1033A0000430C0B28DF80500144B5D6808446B8989
:1033B00098421DDC114B196801AB0222C97E2878A6
:1033C000FEF7C8FBB8B90D4B196858683346E2B22E
:1033D000097E0078FEF7BEFB003818BF012040428E
:1033E00002B070BD4FF0FF3070474FF0FF30F7E78D
:1033F0004FF0FF30F4E74FF0FF30F1E7100000200E
:1034000052B370B582B00C461646194B9B7A33B353
:10341000030A8DF80430C0B28DF80500144B5D68C6
:1034200008446B8998421DDC114B196801AB0222DC
:10343000C97E2878FEF78EFBB8B90D4B196858681D
:103440003346E2B2097E0078FEF7A6FB003818BFCB
:103450000120404202B070BD4FF0FF3070474FF086
:10346000FF30F7E74FF0FF30F4E74FF0FF30F1E7C0
:10347000100000202DE9F04F89B001932B4B93F8F9
:103480002530002B3FD180468A46934600293DD007
:1034900000B300240DF11009A8EB0406102EA8BFFC
:1034A0001026B5B20AEB04073A4629462046FFF734
:1034B0006DFF70BB4A4629462046FFF7A1FF58BB67
:1034C0002A464946384604F091F840BB2544ACB240
:1034D000A045E1D84FEA1B238DF80C308DF80DB0D4
:1034E000124B1968586803AB0222497F0078FEF737
:1034F00031FBB8B90D4B012283F82520019ADA84FB
:1035000009B0BDE8F08F4FF0FF30F9E74FF0FF3022
:10351000F6E74FF0FF30F3E74FF0FF30F0E76FF0E2
:103520000100EDE74FF0FF30EAE700BF1000002098
:10353000234B93F8243083423CD030B583B018B38A
:103540001F4B93F82530002B36D00020FEF768FF84
:103550000020FFF777FC1A4DE88CFFF7C1FD00242F
:103560008DF8074068680DF10703012223210078D8
:10357000FEF7F0FA012085F82400FEF751FFFFF76F
:10358000D5F9204603B030BD0020FEF749FF0C4DB1
:103590002B7C8DF8073068680DF107030122232189
:1035A0000078FEF7D7FA002485F82440FFF7BEF92B
:1035B0002046E7E7002070474FF0FF30E2E700BF0A
:1035C000100000202DE9F04F95B083460D46A94B21
:1035D00093F82440002C4CD10DA8FFF79FFA0DF171
:1035E0003700FFF7F7FA0CA8FFF752FB0DF1320096
:1035F000FFF7A6FB9F4B9A7A01921B7C0293002255
:1036000029465846FEF752FF002800F07D8100222F
:1036100029465846FEF74AFF002800F0758100252C
:10362000944BFF221A725A72DA724FF6FF71D981E7
:103630009A721A7401221A73BDF83400FFF788FADF
:103640009DF83700FFF7E4FABDF83000FFF73CFBC8
:10365000BDF83200FFF744FD0198FFF791FD029895
:10366000FFF7C4FB002C40F00181284615B0BDE8EF
:10367000F08F0020FFF75CFF0124ADE704957E4B3F
:103680002B60013CE4B2CDF80C8008F8014C74B119
:1036900018463146FDF790FA013C14F0FF04F8D1CA
:1036A000049B1860039B4FF0000203F8012C0435C3
:1036B000B84506D018F8014B002CDFD1C5F80090B2
:1036C000F5E75446059D043D0DF138090DF1240838
:1036D0004FF0000A5646039410E068492046FDF773
:1036E00009FC20B966492046FDF722FC18B10123E8
:1036F000B3404AEA030A0136032E2AD059F8043BA4
:1037000055F8040FC01A0028B8BF4042FDF700FA70
:103710004FF05E51FDF750FA044658F8047B002143
:103720003846FDF7DDFB0028D7D139462046FDF7A6
:10373000F7FA4FF07E51FDF735F920F0004051497E
:10374000FDF7F6FB0028D6D00123B3404AEA030A6E
:10375000D1E7039C5FFA8AF8464B586809AB03220D
:103760000D210078FEF718FA054600287BD19DF858
:10377000243003F01F038DF824309DF8253003F02A
:103780001F038DF825309DF8263003F01F038DF8B8
:103790002630ABF1040A0DF1440909AF83460394C6
:1037A000CDF8108030E0013C059714F0FF0420D0E4
:1037B0003548DFF8D8804146FDF7FEF9013C14F0AA
:1037C000FF04F8D10023059A02F8013C0146304677
:1037D000FDF7A6FA4FF07E51FDF7E4F820F0004027
:1037E0002849FDF7A5FB60B10123AB404BEA030B71
:1037F00007E007F8014C2448E8E70123AB404BEA17
:10380000030B0135032D1ED059F8043B5AF8040F61
:10381000C01A0028B8BF4042FDF77AF94FF05E5158
:10382000FDF7CAF9064617F8014B002CBBD1184921
:10383000FDF760FB0028E0D116493046FDF778FB24
:103840000028DED0D9E7039CDDF810805FFA8BF505
:10385000B5FA85F56D09B8F1000F01D145F0020503
:1038600045F00405DCE64FF0070BEFE70120FFF71A
:103870005FFEFAE6100000207B14AE3E9A99993E56
:103880003333733F295C0F3E0000C84154E3853F4A
:10389000000020410000D242234B586808AB0422AC
:1038A0000D210078FEF778F900287FF40CAF9DF821
:1038B00023209DF82030DB1003F01C03C2F301111C
:1038C0000B438DF81C309DF82130DB1003F01C03F6
:1038D000C2F381010B438DF81D309DF82230DB10BF
:1038E00003F01C0302F0030213438DF81E300DF1A8
:1038F0001C080DF1240A0DF11F070C4E4FF00009B2
:1039000005955546A246D5E601220EA911A8FEF757
:10391000CDFD0028C0D001220EA911A8FEF7C6FDDA
:103920000028B9D000257BE6100000201D5A843FF6
:1039300008B5C8234FF48062024940F6F630FFF71D
:1039400099FD08BD40AA000810B586B004464C4B4E
:103950001B68ADF80C301B0C8DF80E30494B1B6802
:10396000ADF808301B0C8DF80A30474B1B68ADF8DA
:1039700004301B0C8DF80630444B1B68ADF800304A
:103980001B0C8DF8023000F0030101F118030DEB60
:10399000030111F80C3C8DF81430C0F3C10202F1A0
:1039A00018030DEB030212F80C3C8DF81530C0F330
:1039B000811318336B4413F80C0C8DF8160011F8B2
:1039C000101C8DF8101012F8102C8DF8112013F81F
:1039D000103C8DF8123005AA032140F22640FFF773
:1039E000D5FC002840D104AA032140F22A40FFF769
:1039F000CDFC00283BD1019BADF814301B0C8DF899
:103A00001630009BADF810301B0C8DF8123014F0FE
:103A1000040F05D037238DF8143027238DF810308C
:103A200014F0200F05D057238DF8153047238DF85B
:103A3000113014F4807F05D077238DF8163067237A
:103A40008DF8123005AA03214FF48860FFF79EFC21
:103A500080B904AA032140F23140FFF797FC60B916
:103A60000B4B1C8106B010BD4FF0FF30FAE74FF052
:103A7000FF30F7E74FF0FF30F4E74FF0FF30F1E7AA
:103A8000B0850008B4850008B8850008BC8500082A
:103A90008439002030B583B0374B1A8902F0030314
:103AA00050F8233012F0040F18BF5B42C2F3C1017B
:103AB00050F8211012F0200F18BF4942C2F38114B0
:103AC00050F8244012F4807F18BF6442DD172B4A5F
:103AD000A3FB023002FB05009B0F43EA8003CD17D6
:103AE000A1FB021002FB05008D0F45EA8005E017DF
:103AF000A4FB024102FB0012A40F44EA82041A163E
:103B00008DF804201A148DF805201A128DF806205D
:103B10008DF8073001AA04214FF47470FFF736FCCA
:103B200020BB2B168DF804302B148DF805302B128A
:103B30008DF806308DF8075001AA04214FF47570F6
:103B4000FFF724FCA8B923168DF8043023148DF850
:103B5000053023128DF806308DF8074001AA0421A4
:103B60004FF47670FFF712FC03B030BD4FF0FF301A
:103B7000FAE74FF0FF30F7E78439002009E3CA0283
:103B800010B584B004460DF10200FFF70DF9BDF841
:103B900002C04FEACC3C2E4BB3F808E00EF0030312
:103BA00054F823101EF0040F18BF4942CEF3C1038E
:103BB00054F823201EF0200F18BF5242CEF3811379
:103BC00054F823301EF4807F18BF5B42CC17A1FB52
:103BD0000C100CFB0400890F41EA8001D417A2FBF2
:103BE0000C200CFB0400920F42EA8002DC17A3FBBE
:103BF0000C300CFB04009B0F43EA800308168DF881
:103C0000040008148DF8050008128DF806008DF8E0
:103C1000071011168DF8081011148DF809101112E3
:103C20008DF80A108DF80B201A168DF80C201A1436
:103C30008DF80D201A128DF80E208DF80F3001AA84
:103C40000C214FF42570FFF7A1FB04B010BD00BF9D
:103C50008439002010B586B00446164B93E807005F
:103C600006AB03E90700C82C1AD800238DF80430EE
:103C7000C82393FBF4F3013B8DF8053001AA022120
:103C800040F21620FFF782FB68B903AA0C2140F628
:103C9000C120FFF77BFB48B9074B9C8106B010BDE4
:103CA0004FF0FF30FAE74FF0FF30F7E74FF0FF300B
:103CB000F4E700BFC08500088439002070B582B0E9
:103CC000044610F0070F00F0AD800846B1F5C86F4C
:103CD00000F2AB80FCF718FF5C49FDF721F80546C0
:103CE0000DF10300FEF776FF9DF80330023B0E2B2B
:103CF00000F29E80DFE803F0089C2C9C9C9C3C9C7E
:103D00009C9C9C9C9C9C4C004FF08D412846FCF751
:103D100053FFFDF73DF986B24D492846FCF74CFFAD
:103D2000FDF736F980B2330A8DF804308DF805605E
:103D3000030A8DF806308DF8070014F0010F37D113
:103D400014F0020F48D114F0040F58D1002071E094
:103D50004FF08C412846FCF72FFFFDF719F986B28A
:103D60003C492846FCF728FFFDF712F980B2DAE754
:103D70004FF08B412846FCF71FFFFDF709F986B28B
:103D800035492846FCF718FFFDF702F980B2CAE76B
:103D90004FF08A412846FCF70FFFFDF7F9F886B28D
:103DA0002E492846FCF708FFFDF7F2F880B2BAE783
:103DB00001AA02214FF4EA70FFF7E8FA00283BD18C
:103DC0000DF1060202214FF49270FFF7DFFA00288E
:103DD000B6D04FF0FF302DE001AA02214FF4EC7075
:103DE000FFF7D4FA58BB0DF1060202214FF494708C
:103DF000FFF7CCFA0028A6D04FF0FF301AE001AA56
:103E000002214FF4EE70FFF7C1FAD8B90DF10602A6
:103E100002214FF49670FFF7B9FA003818BF01205D
:103E2000404207E04FF0FF3004E04FF0FF3001E088
:103E30004FF0FF3002B070BD4FF0FF30FAE74FF0A7
:103E4000FF30F7E74FF0FF30F4E700BF00004843D2
:103E5000000040460000C045000040450000C0444E
:103E600000B583B010F0010318BF30238DF8073080
:103E700010F0020F04D0DBB243F00C038DF80730D2
:103E800010F0040F05D09DF8073043F003038DF8C0
:103E900007300DF1070201214FF4A470FFF776FA05
:103EA00003B05DF804FB00B583B0042828BF0420EC
:103EB000012838BF012001388DF807000DF10702F5
:103EC000012140F24F10FFF761FA03B05DF804FBE7
:103ED00000B583B0084BA3FB00308308800A8DF83F
:103EE00004008DF8053001AA02214FF4EF70FFF7AE
:103EF0004DFA03B05DF804FBCDCCCCCC00B583B05B
:103F0000084BA3FB00308308800A8DF804008DF86D
:103F1000053001AA02214FF4ED70FFF737FA03B024
:103F20005DF804FBCDCCCCCC00B583B00D4B83FB4E
:103F30000023C017C0EBA31000FB01F10B168DF896
:103F400004300B148DF805300B128DF806308DF807
:103F5000071001AA04214FF4AE70FFF717FA03B05F
:103F60005DF804FBD34D621000B583B0084BA3FB92
:103F700000308308800A8DF804008DF8053001AA0E
:103F800002214FF4AD70FFF701FA03B05DF804FBB6
:103F9000CDCCCCCC00B583B0084BA3FB003083085C
:103FA000800A8DF804008DF8053001AA02214FF433
:103FB000AC70FFF7EBF903B05DF804FBCDCCCCCCD3
:103FC00000B585B068B10D4A01AB07CA03C31A70CA
:103FD00001AA09214FF49760FFF7D8F905B05DF801
:103FE00004FB074A01AB07CA03C31A7001AA0921DF
:103FF0004FF49760FFF7CAF9F0E700BFD0850008DB
:10400000DC85000800B583B0B0B1C0238DF8043062
:10401000C2238DF80530C4238DF80630C6238DF8F1
:10402000073001AA042140F69820FFF7AFF9FEF708
:104030007DFC03B05DF804FB4FF08B330193F0E798
:1040400000B583B0B0B120238DF8043028238DF85B
:10405000053030238DF8063038238DF8073001AA5B
:10406000042140F69E20FFF791F9FEF75FFC03B0B4
:104070005DF804FB4FF0A3330193F0E7F0B585B092
:10408000044602238DF80430CA238DF80530E3235B
:104090008DF8063009238DF8073001AA0421682025
:1040A000FFF774F914F0400640F0AE80A3231946E0
:1040B0001A46A3208DF804008DF805308DF80610FF
:1040C0008DF8072014F4C07540F0A2800346014625
:1040D00002468DF808308DF809108DF80A20A323C8
:1040E0008DF80B308DF80C308DF80D3001AA0A21B7
:1040F00040F6A720FFF74AF914F003070CBFD823B6
:1041000020238DF8043001AA012140F6B620FFF7E4
:104110003DF914F0200F14BF01200020FFF750FFDD
:10412000A5B114F4807F77D1B0208021B4229023F0
:104130008DF804008DF805108DF806208DF80730F5
:1041400001AA042140F6A220FFF720F914F0010F84
:1041500067D0F8238DF8043001AA01214FF40B60D9
:10416000FFF714F9FA210720FFF7A8FD0720FFF752
:1041700077FE0120FFF797FE6420FFF7A9FE4FF4BA
:10418000FA70FFF7BBFEC8212D48FFF7CDFE2820AF
:10419000FFF7EAFE0A20FFF7FDFE14F0020F0CBF46
:1041A000D823D9238DF8043001AA012140F23D70B3
:1041B000FFF7ECF814F0040F14BF01200020FFF704
:1041C00021FF14F0100F14BF01200020FFF738FF6B
:1041D00044F008031B4A5381FEF7A8FB002E0CBFD6
:1041E000002306233DBB174A937314F0140F03D02A
:1041F000144A937B103393731FB1124A937B043399
:104200009373002005B0F0BDC023C821C22250E73F
:10421000C423CC21C6225CE7B2208B21B6229B238B
:1042200086E7D8238DF8043001AA01214FF40B60F2
:10423000FFF7ACF8B1E70633024A9373D5E700BF46
:1042400009E3CA028439002070B586B0012144F226
:104250000500FDF733F918238DF817304FF400737C
:10426000ADF8143003268DF8166005AD224C2946B2
:104270002046FDF75FF848238DF817304FF4806330
:10428000ADF814308DF8166029462046FDF752F837
:104290004FF4612300930023ADF80C300C22ADF8ED
:1042A0000A20ADF80830ADF80630ADF80430134DF3
:1042B00069462846FDF7A8F9012240F22551284613
:1042C000FDF70AFA4FF4A060FCF79CFF25238DF858
:1042D000103001248DF813408DF811408DF81240F4
:1042E00004A8FCF799FF21462846FDF7E7F90448A2
:1042F00003F02EF806B070BD000801400038014000
:10430000E8850008014B00221A7070479C39002094
:1043100008B50120FCF7FAFF012800D008BD064BC4
:104320001B781BB10120FCF7FFFFF7E701210348D1
:10433000FDF73CF9F6E700BF9C390020000800407B
:1043400010B501212948FDF74FF9012800D010BD13
:1043500001212748FDF745F80446264B1B78834288
:104360000AD0244B1B78A34218D0224B1C70012189
:104370001E48FDF745F9EAE70028F2D11E4A1388E6
:1043800001339BB2138013889BB241F28732934270
:10439000EBD9194B4FF4FA721A80E6E7012CE4D1FD
:1043A000164A138801339BB21380134B1B889BB2B0
:1043B000B3F5FA7F10D3124B03221A700F4B1B88F0
:1043C0009BB2092BD1D900210B4B19800B4B1980C3
:1043D0000648FDF7EBF8C8E7074B1B889BB2092B93
:1043E000ECD9074B02221A70E8E700BF0008004032
:1043F00000080140943900209639002098390020A7
:104400009C39002070B588B001210420FDF756F8D2
:1044100001210420FDF760F80124ADF81C40482379
:104420008DF81F3003268DF81E6007A92648FCF77B
:1044300081FF02948DF80E4000258DF80C5010235A
:104440008DF80D3002A8FCF71BFF06238DF8043011
:104450008DF807408DF805608DF8066001AE304696
:10446000FCF7DAFE40F60F63ADF81030ADF81250ED
:104470001323ADF81430ADF81650144D04A9284696
:10448000FDF738F821462846FDF7AAF822462146CE
:104490002846FDF799F84FF4A060FCF7B3FE1E2301
:1044A0008DF804308DF8074004238DF805308DF821
:1044B00006303046FCF7B0FE054802F0B9FF054B68
:1044C000054A5A6008B070BD00080140000800406D
:1044D000F48500089C39002005430008F8B504283D
:1044E00026D8DFE800F003093D0F26000022022154
:1044F0002748FCF77EFF1BE0012202212448FCF73D
:1045000078FF15E00624224F02266425002231465A
:104510003846FCF76EFF2846FDF768FA012231465F
:104520003846FCF766FF2846FDF760FA013CEDD1FE
:10453000F8BD0B24164F022632250022314638469C
:10454000FCF757FF2846FDF751FA0122314638465D
:10455000FCF74FFF2846FDF749FA013CEDD1E7E7AC
:1045600004240B4F0226FA25002231463846FCF778
:1045700040FF2846FDF73AFA012231463846FCF75B
:1045800038FF2846FDF732FA013CEDD1D0E700BFF5
:104590000008014000B583B001210420FCF78EFF24
:1045A00010238DF807300223ADF8043003238DF873
:1045B000063001A90648FCF7BDFE064B0020187125
:1045C000054A1A60FFF78AFF03B05DF804FB00BFDD
:1045D00000080140A4390020DD44000870B586B011
:1045E00001210420FCF76AFF01214FF40030FCF7A1
:1045F00073FF0426ADF8146018238DF817300323D9
:104600008DF8163005AD154C29462046FCF792FE74
:104610000823ADF814308DF8176029462046FCF7C2
:1046200089FE4FF4E13301930023ADF80830ADF873
:104630000A30ADF80C30ADF810300C23ADF80E3068
:10464000A4F544440DEB06012046FCF7DDFF0121F3
:104650002046FDF733F806B070BD00BF00080140EA
:1046600091B1F8B506464718084C802516F8011B8D
:104670002046FDF74BF829462046FDF74BF8012868
:10468000F9D1BE42F2D1F8BD704700BF00440040EE
:104690000346682202700820587000229A70FF2298
:1046A000DA7010221A71597101F20F1199711622E4
:1046B000DA717047034668220270082058700022A1
:1046C0009A70FF22DA7012221A71597101F21111D7
:1046D00099711622DA71704708B5C3B20B2B06D850
:1046E000054B53F82010054802F032FE08BD04487F
:1046F00002F02EFEFAE700BF3C0000200086000812
:104700000486000810B5084B1B780B2B08D85CB248
:10471000064B1B5D03702046FFF7DEFF204610BDF1
:104720004FF0FF34F7E700BF0000002038B6000864
:1047300030B583B004460DF10700FFF7E3FFB0F199
:10474000FF3F05D1104B1B680220984703B030BDD6
:104750009DF8075029460D4802F0FAFD74B9294624
:104760000B48FFF7A7FF01460A4B19800848FFF7DF
:1047700077FF054B1B6803209847E7E72946044865
:10478000FFF786FF0146EFE7A439002018860008EE
:10479000AC3900202C3A002008B5FFF71FFF08BDF8
:1047A00008B50020FFF7C4FF08BD08B50120FFF7DA
:1047B000BFFF08BD2DE9F04182B001210420FCF7C4
:1047C0007DFE01210820FCF779FE10238DF80730CB
:1047D000F027ADF8047003238DF806300DF10408BE
:1047E0000C4E41463046FCF7A5FD40F60145ADF8BC
:1047F0000450094C41462046FCF79CFD39463046A2
:10480000FCF7F5FD29462046FCF7F1FD02B0BDE8B6
:10481000F08100BF00080140000C01407047704764
:104820002DE9F04182B001210420FCF747FE01216F
:104830000820FCF743FE10238DF80730F027ADF871
:10484000047003238DF806300DF104080C4E414628
:104850003046FCF76FFD40F60145ADF80450094CB9
:1048600041462046FCF766FD39463046FCF7BFFD61
:1048700029462046FCF7BBFD02B0BDE8F08100BF31
:1048800000080140000C0140704770472DE9F041DD
:1048900082B001210420FCF711FE01210820FCF761
:1048A0000DFE10238DF80730F027ADF804700323B8
:1048B0008DF806300DF104080C4E41463046FCF7E9
:1048C00039FD40F60145ADF80450094C41462046FB
:1048D000FCF730FD39463046FCF789FD2946204675
:1048E000FCF785FD02B0BDE8F08100BF0008014083
:1048F000000C014070477047704770477047704721
:1049000070477047704770477047704770477047EF
:1049100070477047704770477047704770477047DF
:1049200070472DE9F04F97B09246BDF880200B926A
:10493000BDF884200E92BDF888200892BDF88C60E6
:10494000BDF890200192BDF894E0BDF89820059242
:10495000BDF89C50BDF8A0200992002B00F0988073
:1049600007468B4698460024A446724293B2089AA2
:10497000524292B20F922246C1467146184679E0E1
:1049800001331BB2194683420FDA53EA0204F7D40B
:10499000AA45F5DD8B45F3DD05FB0B1109FB01F1A4
:1049A00018F901108C440137EAE7013212B21546BA
:1049B000724504DA8642F8DA33463146E5E7029B6F
:1049C0000399049C069A0A4409FB02F209990F41D3
:1049D0009CFBF7FC0A9901F802C0621C14B2214644
:1049E000019A13449BB2059A944213DA079D7545C8
:1049F0000DDA1EB20B9A019801FB0020089A801A6A
:104A00002A460027BC46029303910494D2E700276C
:104A1000BC46D7E7119F129E139A149D15980D9BC3
:104A2000013319B20D910C460C9B13449BB20C93AD
:104A3000A94218DA059B002BF1D0BDF9303007935D
:104A40000E9B04FB023EAEEB060E059B03FB04F33C
:104A500006930F9900240B46119712961392149502
:104A600015902146C2E71146109A013212B29446BF
:104A70004A450DDA002DF8D00C9000230D931C460A
:104A800007EB0C082A9B63440A9310920A46D1E76D
:104A900017B0BDE8F08F2DE9F04F95B092461A4659
:104AA000BDF878300893BDF87C300B93BDF88030AA
:104AB0000693BDF88450BDF888300C93BDF88CE0A7
:104AC000BDF890300393BDF89440002A00F09A801E
:104AD00007461346002006466A421FFA82F9069AE4
:104AE000524292B20D92D4468A4671462246CDF881
:104AF00038909946E34674E0013109B20C46814290
:104B000010DA51EA0205F7D4B345F5DDA245F3DD2D
:104B100006FB0A4409FB04F41CF90440A645B8BF8F
:104B2000A646E9E7013212B21646424504DA874248
:104B3000F8DA39463C46E4E7009D0199029C049A64
:104B40000A4409FB02F2079901F802E0013424B299
:104B50002146EA1895B2039A944212DA059E464518
:104B60000CDA2FB2089A01FB0320069A801A32460B
:104B70006FF0800E009501910294D8E76FF0800EDF
:104B8000DDE7109F119D129A13980A9B01331CB206
:104B90000A9423460999114489B20991844218DA8A
:104BA00003990029F1D0BDF9241005910B9903FB5D
:104BB0000218A8EB0508039901FB03F304930D9970
:104BC0000024109711950D4621460C9B12921390CC
:104BD000C4E7114602460F98013000B20646484528
:104BE00010DA002AF8D00E9B099300230A939E4600
:104BF00007EB060C279B3344079373460F90104630
:104C00000A46CDE715B0BDE8F08F2DE9F04FA5B00D
:104C100004460C9116929A46BDF8BC301F460D937F
:104C2000BDF8C0C0CDF838C0BDF8C4E0CDF85CE038
:104C3000BDF8C8300F93BDF8CC50BDF8D0301893F4
:104C4000BDF8D4301993BDF8D880CDF86880BDF890
:104C5000DC00BDF8F4301093BDF8F8609DF8EC303E
:104C6000012B14BF00220122002F00F00F81894682
:104C70000AFB0CF306930EFB03F10AFB09F300FB9E
:104C800003F305930AFB08FE00230B930A93089392
:104C900004F1FF3909EB0A0307932E9B03F1FF3B55
:104CA0005746F2461195B4465E46CB46DDE03A9B48
:104CB00053F82730012101FA03F343FA01F066E0CB
:104CC0000799CE18C4461F46019D029403935AB11A
:104CD00009EB07030BEB0C0113F9014F11F901EF7D
:104CE0000EFB0400B342F7D10135574494445644B7
:104CF000009BAB42EBD1029C039B013405990B4412
:104D0000069988440499A14204D00199009DA942C2
:104D1000D6DBF2E7209D219F229EDDF88CC0149BFC
:104D200099193C9B0D9C04FB01313A9B53F82730A9
:104D3000184100F30700089BC8540136109B9E429F
:104D40003FDA189B06FB03F40F9BE31AE91A91FB69
:104D5000FCF121EAE17101910C99A1EB030EAE4443
:104D60009EFBFCFE0E9B9E45A8BF9E46389B002BDB
:104D70009DD008995856399B53F8273098403A9B54
:104D800053F82730012101FA03F300EB6300139B72
:104D900004998B42C3DA1B9B2344019901FB0C331A
:104DA00002FB03F3159C2144DDF82C8002FB0188F3
:104DB000139C20952197CDF800E02296CDF88CC069
:104DC000A3E7E646DDF878C0DDF87C80099B013377
:104DD0000993634537DA1998099B03FB00F311988F
:104DE000191A109E002EF1D0A8EB0104129894FB22
:104DF000F0F525EAE575169C611A4144044691FBDD
:104E0000F0F117988142A8BF01460491099901FB6E
:104E100006F1149111981B1A05FB04330C9901FB40
:104E200003F30E9901FB05F1159100260EF1FF34F5
:104E30000F995B1A1B9313952546CDF878C0F4465D
:104E4000CDF87C807DE71D9917461C9A12985E4626
:104E5000CB46089B013308930A9C14440A940B9C8C
:104E60000C440B940D9CA34210D0BCF1000FF0D069
:104E70000023099300F1FF381C921D913A460A9FC6
:104E8000DDF868E01290D946B346A4E725B0BDE846
:104E9000F08F2DE9F04F93B00546019088461046FB
:104EA0009C46BDF87060BDF874B01F9C9B0800F074
:104EB00020819208069204F1040A013B9BB24FEA5A
:104EC000830E0E94083404EB83030893531E9BB2A5
:104ED0002A4605F1080909EB8309043202EB830233
:104EE000099200F003020792013A92B21E9D01213D
:104EF00001FA0BF10D91491001331B010A93531C68
:104F00000B939B000C932F46CDF83CE01090CDF80E
:104F100044C0B4460D46C6E00D9B5A1011461046DB
:104F20001446069B002B00F0D880019B03F1040E71
:104F300008F110030297CDF80CA0CDF81080CDF841
:104F400014C01EF904AC1EF9026C13F9107C13F99D
:104F50000E8C06FB08F80AFB0788904413F90F2C07
:104F600013F90DCC06FB0CFC0AFB02CCA44413F98C
:104F70000C2C13F90A7C06FB07F70AFB027707449F
:104F800013F90B0C13F9092C06FB02F20AFB0022A1
:104F900056181EF903AC1EF9011C13F9080C13F97D
:104FA000062C01FB02F20AFB0022424413F9070C13
:104FB00013F9054C01FB04F40AFB0044644413F9A3
:104FC00004CC13F9020C01FB00F00AFB0C0038447E
:104FD00013F903CC13F9017C01FB07F70AFB0C77EB
:104FE000B9190EF1040E1033CE45AAD1029FDDF897
:104FF0000CA0DDF81080DDF814C00A9B9844099ECF
:10500000079B0BB308F10403DDF82CE0B6440297CC
:10501000CDF80C9016F9017B13F9049C07FB0922CB
:1050200013F9039C07FB094413F9029C07FB0900D1
:1050300013F9019C07FB091104337645EAD1029F5D
:10504000DDF80C900C9B984442FA0BF27F2AA8BF23
:105050007F226FF07F039A42B8BF1A460AF8042CE9
:1050600044FA0BF47F2CA8BF7F249C42B8BF1C4697
:105070000AF8034C40FA0BF07F28A8BF7F20984223
:10508000B8BF18460AF8020C41FA0BF17F29A8BFF5
:105090007F219942B8BF19460AF8011C0AF1040A97
:1050A000089B9A451BD01E9B002B3FF435AF97F908
:1050B000002002FA0CF22A4497F9014004FA0CF499
:1050C0002C4497F9020000FA0CF0284497F90310D9
:1050D00001FA0CF12944043723E7019E90E7DDF83B
:1050E0003CE010986646DDF844C00E9B043303EBA9
:1050F0000E041CF0030735D027444FF0010909FACC
:105100000BF94FEA690E6FF07F0C0297CDF80C9007
:10511000DDF878901CE0039B5B1060B108EB000A9F
:105120000199424611F9015B12F9017B07FB053336
:105130005245F7D1804443FA0BF37F2BA8BF7F235E
:105140006345B8BF634604F8013B029B9C4209D00B
:10515000B9F1000FDFD04A4612F9013BB340734466
:105160009146DAE713B0BDE8F08F002941D070B561
:105170008E4600F1FF3CE64463466FF4807113F9FC
:10518000010F8142B8BF01467345F8D1083909B211
:1051900060460024012501E070450AD010F9013F66
:1051A0008B42F9DD5B1A83F3050305FA03F31C4414
:1051B000F2E74FF4801090FBF4F0002601F10D05AA
:1051C0006FF07F0403E016700132F44510D01CF933
:1051D000013F8B42F7DDEB1A83F3050340FA03F33B
:1051E0007F2BA8BF7F23A342B8BF23461370EBE7F2
:1051F00070BD704792B1431E1044013808E001FBB6
:1052000002F2002AB8BF7F32D2111A70834205D051
:10521000013393F90020002AF8DAF0E770472DE90E
:10522000F04F95B000909146BDF878200992BDF8F6
:105230007C60BDF880B0BDF884E0BDF888200192A4
:10524000BDF88C50BDF890200592BDF89440BDF893
:1052500098200892002B00F094808A460020CEF11E
:10526000000297B2CBF1000292B20D92C846D1462D
:10527000CDF828B0834622460E97374676469A46A2
:1052800076E001331BB21946834210DA53EA020476
:10529000F7D4A845F5DD8945F3DD05FB09110AFBC7
:1052A00001B1009C34F911108C440137E9E7013257
:1052B00012B21546724504DA8642F8DA33463146B0
:1052C000E4E70299039B049C069A13440AFB03B388
:1052D000089A17419CFBF7FC289A22F813C0631C1C
:1052E0001CB22346019A8A1891B2059A944213DAA5
:1052F000079D75450DDA0EB2099A019803FB00204F
:105300000A9A801A2A460027BC4602910393049405
:10531000D2E70027BC46D7E7109F119E129D139A33
:105320000C9B013319B20C910C460B9B2B449BB286
:105330000B93914216DA059B002BF1D0BDF92C306E
:10534000079304FB057EAEEB060E059B03FB04F3FF
:1053500006930D9B002419461097119612951392EF
:105360002346C5E70F98411C08B28346504508DA2A
:10537000002AF8D00E9B0B9300230C931C460F9031
:10538000D9E715B0BDE8F08F2DE9F04FA3B0044682
:105390008E460F911892BDF8B4001090BDF8B85029
:1053A0001195BDF8BC80BDF8C0201292BDF8C49024
:1053B000BDF8C8201992BDF8CC70BDF8D0C0CDF8AA
:1053C00034C0BDF8D420BDF8EC100E91BDF8F060EB
:1053D0009DF8E410012914BF00210121002800F0EC
:1053E0002B8103FB05F0079008FB00F003FB0EF593
:1053F00002FB05F5069503FB0CF54FEA450AC3EBE6
:10540000C3754FEA450E00250C9509950A9504EBE6
:105410004304023C08942C9C04F1FF3B1A97574626
:10542000DA469B460B4631467646F8E0389B099AA9
:1054300053F82230012202FA03F4144181E0089863
:1054400000EB4107D846029D0393049176B107EB28
:1054500009010EEB080031F9023F10F901CF0CFBF6
:1054600003F39A1844EBE374B942F4D10135B04424
:105470005744019BAB42E9D1039B04990133069841
:105480000144079883440598984204D00298019DEE
:10549000A842D4DBF2E7219F159B0B990B440A9994
:1054A000109800FB031C389B099953F82130C3F175
:1054B0002000B3F1200122FA03F204FA00F042EADC
:1054C00000025CBF44FA01F10A4347F6FF739A42B7
:1054D000A8BF1A465A4B9A42B8BF1A463A9B23F8BD
:1054E0001C200B9B01330B930E9A934245DA199BB8
:1054F0000B9A02FB03F0129BC31A1499CA1A0D9C53
:1055000092FBF4F222EAE27202920F9AA2EB030CEF
:105510008C449CFBF4FC119B9C45A8BF9C46369B8D
:10552000002B83D00A9A9956379B099A53F8223058
:105530009940389B53F82230012202FA03F401EB20
:1055400064042246E417059B9F42A5DA169B129934
:105550005B1A03440D98029901FB003306FB03F329
:10556000179801440C9806FB01082197CDF804C058
:1055700018463B46C346014688E7DDF874C0B3468B
:10558000DDF878801F9A209D0CF1010CAC4532DAD1
:105590001A9B0CFB03F1139E8B1B0E980028F3D073
:1055A000501EC41A94FBF2F727EAE777189CE31A17
:1055B000034493FBF2F34345A8BF434605930E987B
:1055C0000CFB00F31593891B07FB02110F9B03FBD8
:1055D00001F31693119B03FB07F3179300230B931F
:1055E0000D9B013B1493CDF874C05E46CDF87880D6
:1055F0001F9220957BE71B9B57461C9829464E46D9
:10560000DDF84C90F2460A9C01340A94099D1D4431
:1056100009950C9D05440C95109DAC420CD00029B9
:10562000F1D04FF0000C1B931C90CDF84C900D4620
:10563000B146D646BA46ABE723B0BDE8F08F00BF0F
:105640000080FFFF92B1023800EB420C08E001FB42
:1056500003F3002BB8BF7F33DB110380604505D017
:105660000230B0F90030002BF8DAF0E7704740B1B3
:10567000436A1B6833B15869436A1B68002BFAD12F
:10568000704770477047486108467047026A72B1B8
:10569000002002E0487292684AB111690B7A002B2F
:1056A000F8D0013BDBB20B72002BF4D1F2E770476C
:1056B00038B561B104460D460068FFF7D8FF60B108
:1056C000416A2A6A0A60436A1360002038BD0448B0
:1056D00001F0AEFE6FF00600F8E72560F6E700BFC8
:1056E0002486000808B502460023117A41B101332F
:1056F0000C32082BF9D1054801F09AFE002003E096
:1057000003EB430300EB830008BD00BF688600087D
:1057100038B550B104460025E06800F0B9FC0544F6
:10572000A468002CF8D1284638BD0025FBE700000E
:105730002DE9F0410546114801F00AFE00244FF022
:1057400020080F4F0F4E0AE0404601F013FE09E01B
:10575000384601F0FDFD01340C35082C09D014F059
:10576000030FF1D0297A0029F2D0304601F0F0FD84
:10577000F1E70A2001F0FEFDBDE8F081D4860008C3
:10578000DC860008D8860008036933B11A68137AEA
:1057900023B1013BDBB2137203B170470023537294
:1057A000FBE70000034B1860034B1960034B00221A
:1057B0001A607047383A0020343A0020303A00200E
:1057C0007047B0FBF1F301FB13030BB10844C01A9F
:1057D0007047000008B50421FFF7F3FF0B4B1A6870
:1057E00013180B4909688B4205D20A49086810440E
:1057F000064A136008BD21B9074801F0A9FD002041
:10580000F8E7064801F0A4FD0020F3E7303A002055
:10581000343A0020383A0020E08600083887000833
:1058200038B50421FFF7CDFF0446FFF7D3FF054647
:1058300038B1054A1368234413602246002101F061
:10584000E5FE284638BD00BF3C3A0020F8B50F46BB
:1058500031B3064600B34B6A03B31C461B6843B121
:1058600025466468002CFBD10820FFF7D9FF0446C9
:105870006860306A68B102685AB1054680680028DD
:10588000FBD11C20FFF7CCFFA86010B16A69426110
:10589000A86820607A6A02603046F8BD1C46E8E7D6
:1058A0000E46F9E70EB470B583B0079E054670B199
:1058B00008AB0193002E0ADD0024019B1A1D019202
:1058C00019682846FFF7C2FF0134A642F5D12846E1
:1058D00003B0BDE8704003B0704708B513460A46F0
:1058E0000221FFF7DFFF08BD10B580B10446882212
:1058F000002101F08BFE2046084B8360084BC360FB
:10590000084B0361084B4361084B836110BD88203D
:10591000FFF786FF012380F88530EDE7B1560008D8
:105920004D580008DB580008A558000887560008A5
:10593000034628B1002001305B68002BFBD1704783
:10594000002070472DE9F04F85B080460C46914607
:10595000012203929A4623B1002C00F0D981A24F74
:10596000E6E00DF10C0AF7E74846FFF7BBFE0646F6
:10597000037A01330372E86800F08AFB0421FFF721
:1059800020FF7368984238BF184670602E6101236B
:10599000737205E02B681B692B61AD68002DF9D18E
:1059A000256A002D00F0D180CBE02B69002B00F0A0
:1059B000B1815B7A012B40F0B281AD68002DF4D14A
:1059C000C3E014602569BDB14846FFF78BFE28602F
:1059D00023691A68137A0133137223691B68012241
:1059E0005A72256904216868FFF7EBFE2B685A6834
:1059F000904238BF10465860DAF800506B1CCAF865
:105A00000030206AFFF784FE0090606AFFF780FE96
:105A10000190A66A2369DBB1D3F804B0227F0B2A78
:105A200019D002EB4202714B03EB82022946704807
:105A300001F08EFC6369E3B1197A6E4B03EBC1018F
:105A40006D4801F085FC282001F094FC00251AE047
:105A50004FF0000BE2E7694A2946694801F078FCFB
:105A6000236B197D674B03EBC101674801F070FCA4
:105A7000E0E7664801F06CFCE5E7654801F068FC8A
:105A80000135032D0BD0636ADB685A7CAA42F4DD32
:105A90005B6833F81510384601F05AFCF0E75D48B2
:105AA00001F056FCC6B142F20F739E425CD95A4BCC
:105AB0009E425ED9594B9E4263D85949A1FB06319B
:105AC000890C584A02FB1162574BA3FB0232520B5E
:105AD000564801F03DFC02E0554801F039FC5B46B8
